{
  "_format": "hh-sol-artifact-1",
  "contractName": "TaskManager",
  "sourceName": "contracts/TaskManager.sol",
  "abi": [
    {
      "inputs": [],
      "stateMutability": "nonpayable",
      "type": "constructor"
    },
    {
      "anonymous": false,
      "inputs": [
        {
          "indexed": false,
          "internalType": "uint256",
          "name": "taskId",
          "type": "uint256"
        },
        {
          "indexed": false,
          "internalType": "address",
          "name": "updatedBy",
          "type": "address"
        },
        {
          "indexed": false,
          "internalType": "uint256",
          "name": "timestamp",
          "type": "uint256"
        }
      ],
      "name": "TaskCompleted",
      "type": "event"
    },
    {
      "anonymous": false,
      "inputs": [
        {
          "indexed": false,
          "internalType": "uint256",
          "name": "taskId",
          "type": "uint256"
        },
        {
          "indexed": false,
          "internalType": "address",
          "name": "creator",
          "type": "address"
        },
        {
          "indexed": false,
          "internalType": "string",
          "name": "title",
          "type": "string"
        },
        {
          "indexed": false,
          "internalType": "string",
          "name": "fileUrl",
          "type": "string"
        },
        {
          "indexed": false,
          "internalType": "address[]",
          "name": "assignedTo",
          "type": "address[]"
        },
        {
          "indexed": false,
          "internalType": "uint256",
          "name": "timestamp",
          "type": "uint256"
        }
      ],
      "name": "TaskCreated",
      "type": "event"
    },
    {
      "anonymous": false,
      "inputs": [
        {
          "indexed": false,
          "internalType": "uint256",
          "name": "taskId",
          "type": "uint256"
        },
        {
          "indexed": false,
          "internalType": "address",
          "name": "deletedBy",
          "type": "address"
        },
        {
          "indexed": false,
          "internalType": "uint256",
          "name": "timestamp",
          "type": "uint256"
        }
      ],
      "name": "TaskDeleted",
      "type": "event"
    },
    {
      "inputs": [
        {
          "internalType": "uint256",
          "name": "_taskId",
          "type": "uint256"
        }
      ],
      "name": "completeTask",
      "outputs": [],
      "stateMutability": "nonpayable",
      "type": "function"
    },
    {
      "inputs": [
        {
          "internalType": "uint256",
          "name": "_taskId",
          "type": "uint256"
        }
      ],
      "name": "confirmTaskCompleted",
      "outputs": [
        {
          "internalType": "bool",
          "name": "",
          "type": "bool"
        }
      ],
      "stateMutability": "view",
      "type": "function"
    },
    {
      "inputs": [
        {
          "internalType": "string",
          "name": "_title",
          "type": "string"
        },
        {
          "internalType": "string",
          "name": "_content",
          "type": "string"
        },
        {
          "internalType": "string",
          "name": "_fileUrl",
          "type": "string"
        },
        {
          "internalType": "address[]",
          "name": "_assignedTo",
          "type": "address[]"
        }
      ],
      "name": "createTask",
      "outputs": [],
      "stateMutability": "nonpayable",
      "type": "function"
    },
    {
      "inputs": [
        {
          "internalType": "uint256",
          "name": "_taskId",
          "type": "uint256"
        }
      ],
      "name": "deleteTask",
      "outputs": [],
      "stateMutability": "nonpayable",
      "type": "function"
    },
    {
      "inputs": [
        {
          "internalType": "uint256",
          "name": "_taskId",
          "type": "uint256"
        }
      ],
      "name": "getTask",
      "outputs": [
        {
          "internalType": "uint256",
          "name": "id",
          "type": "uint256"
        },
        {
          "internalType": "address",
          "name": "creator",
          "type": "address"
        },
        {
          "internalType": "string",
          "name": "title",
          "type": "string"
        },
        {
          "internalType": "string",
          "name": "content",
          "type": "string"
        },
        {
          "internalType": "string",
          "name": "fileUrl",
          "type": "string"
        },
        {
          "internalType": "address[]",
          "name": "assignedTo",
          "type": "address[]"
        },
        {
          "internalType": "bool",
          "name": "completed",
          "type": "bool"
        },
        {
          "internalType": "uint256",
          "name": "timestamp",
          "type": "uint256"
        }
      ],
      "stateMutability": "view",
      "type": "function"
    },
    {
      "inputs": [],
      "name": "getTaskCount",
      "outputs": [
        {
          "internalType": "uint256",
          "name": "",
          "type": "uint256"
        }
      ],
      "stateMutability": "view",
      "type": "function"
    },
    {
      "inputs": [
        {
          "internalType": "address",
          "name": "_user",
          "type": "address"
        }
      ],
      "name": "getUserTaskIds",
      "outputs": [
        {
          "internalType": "uint256[]",
          "name": "",
          "type": "uint256[]"
        }
      ],
      "stateMutability": "view",
      "type": "function"
    },
    {
      "inputs": [
        {
          "internalType": "uint256",
          "name": "",
          "type": "uint256"
        }
      ],
      "name": "tasks",
      "outputs": [
        {
          "internalType": "uint256",
          "name": "id",
          "type": "uint256"
        },
        {
          "internalType": "address",
          "name": "creator",
          "type": "address"
        },
        {
          "internalType": "string",
          "name": "title",
          "type": "string"
        },
        {
          "internalType": "string",
          "name": "content",
          "type": "string"
        },
        {
          "internalType": "string",
          "name": "fileUrl",
          "type": "string"
        },
        {
          "internalType": "bool",
          "name": "completed",
          "type": "bool"
        },
        {
          "internalType": "uint256",
          "name": "timestamp",
          "type": "uint256"
        }
      ],
      "stateMutability": "view",
      "type": "function"
    }
  ],
  "bytecode": "0x608060405234801561001057600080fd5b506000600281905550612b32806100286000396000f3fe608060405234801561001057600080fd5b50600436106100885760003560e01c8063c17a340e1161005b578063c17a340e14610146578063e1e2955814610164578063eb64787914610180578063f2dffa3f146101b057610088565b80631d65e77e1461008d578063560f3192146100c45780638d977672146100e0578063a67443aa14610116575b600080fd5b6100a760048036038101906100a291906119dd565b6101cc565b6040516100bb989796959493929190611bc3565b60405180910390f35b6100de60048036038101906100d991906119dd565b61054b565b005b6100fa60048036038101906100f591906119dd565b61080f565b60405161010d9796959493929190611c5d565b60405180910390f35b610130600480360381019061012b91906119dd565b610a16565b60405161013d9190611ce1565b60405180910390f35b61014e610e1c565b60405161015b9190611cfc565b60405180910390f35b61017e600480360381019061017991906119dd565b610e26565b005b61019a60048036038101906101959190611d43565b611059565b6040516101a79190611e2e565b60405180910390f35b6101ca60048036038101906101c5919061204d565b6110f0565b005b600080606080606080600080600254891061021c576040517f08c379a000000000000000000000000000000000000000000000000000000000815260040161021390612170565b60405180910390fd5b60008060008b815260200190815260200160002060405180610100016040529081600082015481526020016001820160009054906101000a900473ffffffffffffffffffffffffffffffffffffffff1673ffffffffffffffffffffffffffffffffffffffff1673ffffffffffffffffffffffffffffffffffffffff1681526020016002820180546102ac906121bf565b80601f01602080910402602001604051908101604052809291908181526020018280546102d8906121bf565b80156103255780601f106102fa57610100808354040283529160200191610325565b820191906000526020600020905b81548152906001019060200180831161030857829003601f168201915b5050505050815260200160038201805461033e906121bf565b80601f016020809104026020016040519081016040528092919081815260200182805461036a906121bf565b80156103b75780601f1061038c576101008083540402835291602001916103b7565b820191906000526020600020905b81548152906001019060200180831161039a57829003601f168201915b505050505081526020016004820180546103d0906121bf565b80601f01602080910402602001604051908101604052809291908181526020018280546103fc906121bf565b80156104495780601f1061041e57610100808354040283529160200191610449565b820191906000526020600020905b81548152906001019060200180831161042c57829003601f168201915b50505050508152602001600582018054806020026020016040519081016040528092919081815260200182805480156104d757602002820191906000526020600020905b8160009054906101000a900473ffffffffffffffffffffffffffffffffffffffff1673ffffffffffffffffffffffffffffffffffffffff168152602001906001019080831161048d575b505050505081526020016006820160009054906101000a900460ff161515151581526020016007820154815250509050806000015181602001518260400151836060015184608001518560a001518660c001518760e001519850985098509850985098509850985050919395975091939597565b600254811061058f576040517f08c379a000000000000000000000000000000000000000000000000000000000815260040161058690612170565b60405180910390fd5b600080600083815260200190815260200160002090508060010160009054906101000a900473ffffffffffffffffffffffffffffffffffffffff1673ffffffffffffffffffffffffffffffffffffffff163373ffffffffffffffffffffffffffffffffffffffff1614610637576040517f08c379a000000000000000000000000000000000000000000000000000000000815260040161062e9061223c565b60405180910390fd5b6106ee828260010160009054906101000a900473ffffffffffffffffffffffffffffffffffffffff16836005018054806020026020016040519081016040528092919081815260200182805480156106e457602002820191906000526020600020905b8160009054906101000a900473ffffffffffffffffffffffffffffffffffffffff1673ffffffffffffffffffffffffffffffffffffffff168152602001906001019080831161069a575b50505050506116b9565b6040518060200160405280600081525081600201908161070e9190612408565b506040518060200160405280600081525081600301908161072f9190612408565b50604051806020016040528060008152508160040190816107509190612408565b50600067ffffffffffffffff81111561076c5761076b611e5a565b5b60405190808252806020026020018201604052801561079a5781602001602082028036833780820191505090505b508160050190805190602001906107b29291906118ec565b5060008160060160006101000a81548160ff0219169083151502179055507f0752dde00495a9fda916c836f0f9e13b19edac46a7eebef960aa0a5cdb7736ca823342604051610803939291906124da565b60405180910390a15050565b60006020528060005260406000206000915090508060000154908060010160009054906101000a900473ffffffffffffffffffffffffffffffffffffffff169080600201805461085e906121bf565b80601f016020809104026020016040519081016040528092919081815260200182805461088a906121bf565b80156108d75780601f106108ac576101008083540402835291602001916108d7565b820191906000526020600020905b8154815290600101906020018083116108ba57829003601f168201915b5050505050908060030180546108ec906121bf565b80601f0160208091040260200160405190810160405280929190818152602001828054610918906121bf565b80156109655780601f1061093a57610100808354040283529160200191610965565b820191906000526020600020905b81548152906001019060200180831161094857829003601f168201915b50505050509080600401805461097a906121bf565b80601f01602080910402602001604051908101604052809291908181526020018280546109a6906121bf565b80156109f35780601f106109c8576101008083540402835291602001916109f3565b820191906000526020600020905b8154815290600101906020018083116109d657829003601f168201915b5050505050908060060160009054906101000a900460ff16908060070154905087565b60006002548210610a5c576040517f08c379a0000000000000000000000000000000000000000000000000000000008152600401610a5390612170565b60405180910390fd5b600080600084815260200190815260200160002060405180610100016040529081600082015481526020016001820160009054906101000a900473ffffffffffffffffffffffffffffffffffffffff1673ffffffffffffffffffffffffffffffffffffffff1673ffffffffffffffffffffffffffffffffffffffff168152602001600282018054610aec906121bf565b80601f0160208091040260200160405190810160405280929190818152602001828054610b18906121bf565b8015610b655780601f10610b3a57610100808354040283529160200191610b65565b820191906000526020600020905b815481529060010190602001808311610b4857829003601f168201915b50505050508152602001600382018054610b7e906121bf565b80601f0160208091040260200160405190810160405280929190818152602001828054610baa906121bf565b8015610bf75780601f10610bcc57610100808354040283529160200191610bf7565b820191906000526020600020905b815481529060010190602001808311610bda57829003601f168201915b50505050508152602001600482018054610c10906121bf565b80601f0160208091040260200160405190810160405280929190818152602001828054610c3c906121bf565b8015610c895780601f10610c5e57610100808354040283529160200191610c89565b820191906000526020600020905b815481529060010190602001808311610c6c57829003601f168201915b5050505050815260200160058201805480602002602001604051908101604052809291908181526020018280548015610d1757602002820191906000526020600020905b8160009054906101000a900473ffffffffffffffffffffffffffffffffffffffff1673ffffffffffffffffffffffffffffffffffffffff1681526020019060010190808311610ccd575b505050505081526020016006820160009054906101000a900460ff1615151515815260200160078201548152505090508060c00151610d8b576040517f08c379a0000000000000000000000000000000000000000000000000000000008152600401610d829061255d565b60405180910390fd5b806020015173ffffffffffffffffffffffffffffffffffffffff163373ffffffffffffffffffffffffffffffffffffffff161480610dd35750610dd2338260a0015161175b565b5b610e12576040517f08c379a0000000000000000000000000000000000000000000000000000000008152600401610e09906125c9565b60405180910390fd5b6001915050919050565b6000600254905090565b6002548110610e6a576040517f08c379a0000000000000000000000000000000000000000000000000000000008152600401610e6190612170565b60405180910390fd5b600080600083815260200190815260200160002090508060010160009054906101000a900473ffffffffffffffffffffffffffffffffffffffff1673ffffffffffffffffffffffffffffffffffffffff163373ffffffffffffffffffffffffffffffffffffffff161480610f6c5750610f6b3382600501805480602002602001604051908101604052809291908181526020018280548015610f6157602002820191906000526020600020905b8160009054906101000a900473ffffffffffffffffffffffffffffffffffffffff1673ffffffffffffffffffffffffffffffffffffffff1681526020019060010190808311610f17575b505050505061175b565b5b610fab576040517f08c379a0000000000000000000000000000000000000000000000000000000008152600401610fa290612635565b60405180910390fd5b8060060160009054906101000a900460ff1615610ffd576040517f08c379a0000000000000000000000000000000000000000000000000000000008152600401610ff4906126a1565b60405180910390fd5b60018160060160006101000a81548160ff0219169083151502179055507f843af93d40addceac6932508439844b897d4df9e971db326d557e3cdaa9f3ebf82334260405161104d939291906124da565b60405180910390a15050565b6060600160008373ffffffffffffffffffffffffffffffffffffffff1673ffffffffffffffffffffffffffffffffffffffff1681526020019081526020016000208054806020026020016040519081016040528092919081815260200182805480156110e457602002820191906000526020600020905b8154815260200190600101908083116110d0575b50505050509050919050565b6000845111611134576040517f08c379a000000000000000000000000000000000000000000000000000000000815260040161112b9061270d565b60405180910390fd5b6000835111611178576040517f08c379a000000000000000000000000000000000000000000000000000000000815260040161116f90612779565b60405180910390fd5b6064825111156111bd576040517f08c379a00000000000000000000000000000000000000000000000000000000081526004016111b4906127e5565b60405180910390fd5b60005b81518110156113be57600073ffffffffffffffffffffffffffffffffffffffff168282815181106111f4576111f3612805565b5b602002602001015173ffffffffffffffffffffffffffffffffffffffff1603611252576040517f08c379a000000000000000000000000000000000000000000000000000000000815260040161124990612880565b60405180910390fd5b3373ffffffffffffffffffffffffffffffffffffffff1682828151811061127c5761127b612805565b5b602002602001015173ffffffffffffffffffffffffffffffffffffffff16036112da576040517f08c379a00000000000000000000000000000000000000000000000000000000081526004016112d1906128ec565b60405180910390fd5b60006001826112e9919061293b565b90505b82518110156113aa5782818151811061130857611307612805565b5b602002602001015173ffffffffffffffffffffffffffffffffffffffff1683838151811061133957611338612805565b5b602002602001015173ffffffffffffffffffffffffffffffffffffffff1603611397576040517f08c379a000000000000000000000000000000000000000000000000000000000815260040161138e906129bb565b60405180910390fd5b80806113a2906129db565b9150506112ec565b5080806113b6906129db565b9150506111c0565b506000600260008154809291906113d4906129db565b9190505590506040518061010001604052808281526020013373ffffffffffffffffffffffffffffffffffffffff168152602001868152602001858152602001848152602001838152602001600015158152602001428152506000808381526020019081526020016000206000820151816000015560208201518160010160006101000a81548173ffffffffffffffffffffffffffffffffffffffff021916908373ffffffffffffffffffffffffffffffffffffffff16021790555060408201518160020190816114a59190612408565b5060608201518160030190816114bb9190612408565b5060808201518160040190816114d19190612408565b5060a08201518160050190805190602001906114ee9291906118ec565b5060c08201518160060160006101000a81548160ff02191690831515021790555060e08201518160070155905050600160003373ffffffffffffffffffffffffffffffffffffffff1673ffffffffffffffffffffffffffffffffffffffff16815260200190815260200160002081908060018154018082558091505060019003906000526020600020016000909190919091505560005b825181101561167057600073ffffffffffffffffffffffffffffffffffffffff168382815181106115b9576115b8612805565b5b602002602001015173ffffffffffffffffffffffffffffffffffffffff161461165d57600160008483815181106115f3576115f2612805565b5b602002602001015173ffffffffffffffffffffffffffffffffffffffff1673ffffffffffffffffffffffffffffffffffffffff1681526020019081526020016000208290806001815401808255809150506001900390600052602060002001600090919091909150555b8080611668906129db565b915050611585565b507fe3172c923ea34fb9b5b7be804a1085cc5cafb0151e9ca68adb11cbe6d7f1d1918133878686426040516116aa96959493929190612a23565b60405180910390a15050505050565b6116c383836117e2565b60005b815181101561175557600073ffffffffffffffffffffffffffffffffffffffff168282815181106116fa576116f9612805565b5b602002602001015173ffffffffffffffffffffffffffffffffffffffff1614611742576117418483838151811061173457611733612805565b5b60200260200101516117e2565b5b808061174d906129db565b9150506116c6565b50505050565b600080600090505b82518110156117d6578373ffffffffffffffffffffffffffffffffffffffff1683828151811061179657611795612805565b5b602002602001015173ffffffffffffffffffffffffffffffffffffffff16036117c35760019150506117dc565b80806117ce906129db565b915050611763565b50600090505b92915050565b6000600160008373ffffffffffffffffffffffffffffffffffffffff1673ffffffffffffffffffffffffffffffffffffffff168152602001908152602001600020905060005b81805490508110156118e6578382828154811061184857611847612805565b5b9060005260206000200154036118d357816001838054905061186a9190612a99565b8154811061187b5761187a612805565b5b906000526020600020015482828154811061189957611898612805565b5b9060005260206000200181905550818054806118b8576118b7612acd565b5b600190038181906000526020600020016000905590556118e6565b80806118de906129db565b915050611828565b50505050565b828054828255906000526020600020908101928215611965579160200282015b828111156119645782518260006101000a81548173ffffffffffffffffffffffffffffffffffffffff021916908373ffffffffffffffffffffffffffffffffffffffff1602179055509160200191906001019061190c565b5b5090506119729190611976565b5090565b5b8082111561198f576000816000905550600101611977565b5090565b6000604051905090565b600080fd5b600080fd5b6000819050919050565b6119ba816119a7565b81146119c557600080fd5b50565b6000813590506119d7816119b1565b92915050565b6000602082840312156119f3576119f261199d565b5b6000611a01848285016119c8565b91505092915050565b611a13816119a7565b82525050565b600073ffffffffffffffffffffffffffffffffffffffff82169050919050565b6000611a4482611a19565b9050919050565b611a5481611a39565b82525050565b600081519050919050565b600082825260208201905092915050565b60005b83811015611a94578082015181840152602081019050611a79565b60008484015250505050565b6000601f19601f8301169050919050565b6000611abc82611a5a565b611ac68185611a65565b9350611ad6818560208601611a76565b611adf81611aa0565b840191505092915050565b600081519050919050565b600082825260208201905092915050565b6000819050602082019050919050565b611b1f81611a39565b82525050565b6000611b318383611b16565b60208301905092915050565b6000602082019050919050565b6000611b5582611aea565b611b5f8185611af5565b9350611b6a83611b06565b8060005b83811015611b9b578151611b828882611b25565b9750611b8d83611b3d565b925050600181019050611b6e565b5085935050505092915050565b60008115159050919050565b611bbd81611ba8565b82525050565b600061010082019050611bd9600083018b611a0a565b611be6602083018a611a4b565b8181036040830152611bf88189611ab1565b90508181036060830152611c0c8188611ab1565b90508181036080830152611c208187611ab1565b905081810360a0830152611c348186611b4a565b9050611c4360c0830185611bb4565b611c5060e0830184611a0a565b9998505050505050505050565b600060e082019050611c72600083018a611a0a565b611c7f6020830189611a4b565b8181036040830152611c918188611ab1565b90508181036060830152611ca58187611ab1565b90508181036080830152611cb98186611ab1565b9050611cc860a0830185611bb4565b611cd560c0830184611a0a565b98975050505050505050565b6000602082019050611cf66000830184611bb4565b92915050565b6000602082019050611d116000830184611a0a565b92915050565b611d2081611a39565b8114611d2b57600080fd5b50565b600081359050611d3d81611d17565b92915050565b600060208284031215611d5957611d5861199d565b5b6000611d6784828501611d2e565b91505092915050565b600081519050919050565b600082825260208201905092915050565b6000819050602082019050919050565b611da5816119a7565b82525050565b6000611db78383611d9c565b60208301905092915050565b6000602082019050919050565b6000611ddb82611d70565b611de58185611d7b565b9350611df083611d8c565b8060005b83811015611e21578151611e088882611dab565b9750611e1383611dc3565b925050600181019050611df4565b5085935050505092915050565b60006020820190508181036000830152611e488184611dd0565b905092915050565b600080fd5b600080fd5b7f4e487b7100000000000000000000000000000000000000000000000000000000600052604160045260246000fd5b611e9282611aa0565b810181811067ffffffffffffffff82111715611eb157611eb0611e5a565b5b80604052505050565b6000611ec4611993565b9050611ed08282611e89565b919050565b600067ffffffffffffffff821115611ef057611eef611e5a565b5b611ef982611aa0565b9050602081019050919050565b82818337600083830152505050565b6000611f28611f2384611ed5565b611eba565b905082815260208101848484011115611f4457611f43611e55565b5b611f4f848285611f06565b509392505050565b600082601f830112611f6c57611f6b611e50565b5b8135611f7c848260208601611f15565b91505092915050565b600067ffffffffffffffff821115611fa057611f9f611e5a565b5b602082029050602081019050919050565b600080fd5b6000611fc9611fc484611f85565b611eba565b90508083825260208201905060208402830185811115611fec57611feb611fb1565b5b835b8181101561201557806120018882611d2e565b845260208401935050602081019050611fee565b5050509392505050565b600082601f83011261203457612033611e50565b5b8135612044848260208601611fb6565b91505092915050565b600080600080608085870312156120675761206661199d565b5b600085013567ffffffffffffffff811115612085576120846119a2565b5b61209187828801611f57565b945050602085013567ffffffffffffffff8111156120b2576120b16119a2565b5b6120be87828801611f57565b935050604085013567ffffffffffffffff8111156120df576120de6119a2565b5b6120eb87828801611f57565b925050606085013567ffffffffffffffff81111561210c5761210b6119a2565b5b6121188782880161201f565b91505092959194509250565b7f496e76616c6964207461736b2049440000000000000000000000000000000000600082015250565b600061215a600f83611a65565b915061216582612124565b602082019050919050565b600060208201905081810360008301526121898161214d565b9050919050565b7f4e487b7100000000000000000000000000000000000000000000000000000000600052602260045260246000fd5b600060028204905060018216806121d757607f821691505b6020821081036121ea576121e9612190565b5b50919050565b7f4f6e6c792063726561746f722063616e2064656c657465000000000000000000600082015250565b6000612226601783611a65565b9150612231826121f0565b602082019050919050565b6000602082019050818103600083015261225581612219565b9050919050565b60008190508160005260206000209050919050565b60006020601f8301049050919050565b600082821b905092915050565b6000600883026122be7fffffffffffffffffffffffffffffffffffffffffffffffffffffffffffffffff82612281565b6122c88683612281565b95508019841693508086168417925050509392505050565b6000819050919050565b60006123056123006122fb846119a7565b6122e0565b6119a7565b9050919050565b6000819050919050565b61231f836122ea565b61233361232b8261230c565b84845461228e565b825550505050565b600090565b61234861233b565b612353818484612316565b505050565b5b818110156123775761236c600082612340565b600181019050612359565b5050565b601f8211156123bc5761238d8161225c565b61239684612271565b810160208510156123a5578190505b6123b96123b185612271565b830182612358565b50505b505050565b600082821c905092915050565b60006123df600019846008026123c1565b1980831691505092915050565b60006123f883836123ce565b9150826002028217905092915050565b61241182611a5a565b67ffffffffffffffff81111561242a57612429611e5a565b5b61243482546121bf565b61243f82828561237b565b600060209050601f8311600181146124725760008415612460578287015190505b61246a85826123ec565b8655506124d2565b601f1984166124808661225c565b60005b828110156124a857848901518255600182019150602085019450602081019050612483565b868310156124c557848901516124c1601f8916826123ce565b8355505b6001600288020188555050505b505050505050565b60006060820190506124ef6000830186611a0a565b6124fc6020830185611a4b565b6125096040830184611a0a565b949350505050565b7f5461736b206973206e6f7420636f6d706c657465642079657400000000000000600082015250565b6000612547601983611a65565b915061255282612511565b602082019050919050565b600060208201905081810360008301526125768161253a565b9050919050565b7f4e6f7420617574686f72697a656420746f20636f6e6669726d00000000000000600082015250565b60006125b3601983611a65565b91506125be8261257d565b602082019050919050565b600060208201905081810360008301526125e2816125a6565b9050919050565b7f4e6f7420617574686f72697a656420746f20636f6d706c657465000000000000600082015250565b600061261f601a83611a65565b915061262a826125e9565b602082019050919050565b6000602082019050818103600083015261264e81612612565b9050919050565b7f5461736b20616c726561647920636f6d706c6574656400000000000000000000600082015250565b600061268b601683611a65565b915061269682612655565b602082019050919050565b600060208201905081810360008301526126ba8161267e565b9050919050565b7f5469746c65206d757374206e6f7420626520656d707479000000000000000000600082015250565b60006126f7601783611a65565b9150612702826126c1565b602082019050919050565b60006020820190508181036000830152612726816126ea565b9050919050565b7f436f6e74656e74206d757374206e6f7420626520656d70747900000000000000600082015250565b6000612763601983611a65565b915061276e8261272d565b602082019050919050565b6000602082019050818103600083015261279281612756565b9050919050565b7f46696c652055524c20746f6f206c6f6e67000000000000000000000000000000600082015250565b60006127cf601183611a65565b91506127da82612799565b602082019050919050565b600060208201905081810360008301526127fe816127c2565b9050919050565b7f4e487b7100000000000000000000000000000000000000000000000000000000600052603260045260246000fd5b7f496e76616c69642061737369676e656520616464726573730000000000000000600082015250565b600061286a601883611a65565b915061287582612834565b602082019050919050565b600060208201905081810360008301526128998161285d565b9050919050565b7f43616e6e6f742061737369676e20746f2063726561746f720000000000000000600082015250565b60006128d6601883611a65565b91506128e1826128a0565b602082019050919050565b60006020820190508181036000830152612905816128c9565b9050919050565b7f4e487b7100000000000000000000000000000000000000000000000000000000600052601160045260246000fd5b6000612946826119a7565b9150612951836119a7565b92508282019050808211156129695761296861290c565b5b92915050565b7f4475706c69636174652061737369676e65652061646472657373000000000000600082015250565b60006129a5601a83611a65565b91506129b08261296f565b602082019050919050565b600060208201905081810360008301526129d481612998565b9050919050565b60006129e6826119a7565b91507fffffffffffffffffffffffffffffffffffffffffffffffffffffffffffffffff8203612a1857612a1761290c565b5b600182019050919050565b600060c082019050612a386000830189611a0a565b612a456020830188611a4b565b8181036040830152612a578187611ab1565b90508181036060830152612a6b8186611ab1565b90508181036080830152612a7f8185611b4a565b9050612a8e60a0830184611a0a565b979650505050505050565b6000612aa4826119a7565b9150612aaf836119a7565b9250828203905081811115612ac757612ac661290c565b5b92915050565b7f4e487b7100000000000000000000000000000000000000000000000000000000600052603160045260246000fdfea26469706673582212207484ecc9142a8e9ce23dc990c74ad1dc5573782405f557f0a14bcc0978451b0a64736f6c63430008140033",
  "linkReferences": {},
  "deployedLinkReferences": {}
}